{
  "contractName": "News",
  "abi": [
    {
      "constant": true,
      "inputs": [
        {
          "name": "",
          "type": "uint256"
        }
      ],
      "name": "newsInfos",
      "outputs": [
        {
          "name": "id",
          "type": "uint256"
        },
        {
          "name": "title",
          "type": "string"
        },
        {
          "name": "description",
          "type": "string"
        },
        {
          "name": "publisher",
          "type": "string"
        },
        {
          "name": "dateCreated",
          "type": "string"
        }
      ],
      "payable": false,
      "stateMutability": "view",
      "type": "function",
      "signature": "0x2420b41b"
    },
    {
      "constant": true,
      "inputs": [],
      "name": "newsCount",
      "outputs": [
        {
          "name": "",
          "type": "uint256"
        }
      ],
      "payable": false,
      "stateMutability": "view",
      "type": "function",
      "signature": "0x9981d6d3"
    },
    {
      "constant": false,
      "inputs": [
        {
          "name": "_title",
          "type": "string"
        },
        {
          "name": "_description",
          "type": "string"
        },
        {
          "name": "_publisher",
          "type": "string"
        },
        {
          "name": "_timeCreated",
          "type": "string"
        }
      ],
      "name": "createNews",
      "outputs": [],
      "payable": false,
      "stateMutability": "nonpayable",
      "type": "function",
      "signature": "0x7b1b5eb2"
    }
  ],
  "bytecode": "0x60806040526000805534801561001457600080fd5b50610884806100246000396000f3fe6080604052600436106100565763ffffffff7c01000000000000000000000000000000000000000000000000000000006000350416632420b41b811461005b5780637b1b5eb2146102365780639981d6d314610480575b600080fd5b34801561006757600080fd5b506100856004803603602081101561007e57600080fd5b50356104a7565b6040518086815260200180602001806020018060200180602001858103855289818151815260200191508051906020019080838360005b838110156100d45781810151838201526020016100bc565b50505050905090810190601f1680156101015780820380516001836020036101000a031916815260200191505b5085810384528851815288516020918201918a019080838360005b8381101561013457818101518382015260200161011c565b50505050905090810190601f1680156101615780820380516001836020036101000a031916815260200191505b50858103835287518152875160209182019189019080838360005b8381101561019457818101518382015260200161017c565b50505050905090810190601f1680156101c15780820380516001836020036101000a031916815260200191505b50858103825286518152865160209182019188019080838360005b838110156101f45781810151838201526020016101dc565b50505050905090810190601f1680156102215780820380516001836020036101000a031916815260200191505b50995050505050505050505060405180910390f35b34801561024257600080fd5b5061047e6004803603608081101561025957600080fd5b81019060208101813564010000000081111561027457600080fd5b82018360208201111561028657600080fd5b803590602001918460018302840111640100000000831117156102a857600080fd5b91908080601f01602080910402602001604051908101604052809392919081815260200183838082843760009201919091525092959493602081019350359150506401000000008111156102fb57600080fd5b82018360208201111561030d57600080fd5b8035906020019184600183028401116401000000008311171561032f57600080fd5b91908080601f016020809104026020016040519081016040528093929190818152602001838380828437600092019190915250929594936020810193503591505064010000000081111561038257600080fd5b82018360208201111561039457600080fd5b803590602001918460018302840111640100000000831117156103b657600080fd5b91908080601f016020809104026020016040519081016040528093929190818152602001838380828437600092019190915250929594936020810193503591505064010000000081111561040957600080fd5b82018360208201111561041b57600080fd5b8035906020019184600183028401116401000000008311171561043d57600080fd5b91908080601f0160208091040260200160405190810160405280939291908181526020018383808284376000920191909152509295506106ff945050505050565b005b34801561048c57600080fd5b506104956107b7565b60408051918252519081900360200190f35b600160208181526000928352604092839020805481840180548651600296821615610100026000190190911695909504601f810185900485028601850190965285855290949193929091908301828280156105435780601f1061051857610100808354040283529160200191610543565b820191906000526020600020905b81548152906001019060200180831161052657829003601f168201915b50505060028085018054604080516020601f60001961010060018716150201909416959095049283018590048502810185019091528181529596959450909250908301828280156105d55780601f106105aa576101008083540402835291602001916105d5565b820191906000526020600020905b8154815290600101906020018083116105b857829003601f168201915b5050505060038301805460408051602060026001851615610100026000190190941693909304601f81018490048402820184019092528181529495949350908301828280156106655780601f1061063a57610100808354040283529160200191610665565b820191906000526020600020905b81548152906001019060200180831161064857829003601f168201915b5050505060048301805460408051602060026001851615610100026000190190941693909304601f81018490048402820184019092528181529495949350908301828280156106f55780601f106106ca576101008083540402835291602001916106f5565b820191906000526020600020905b8154815290600101906020018083116106d857829003601f168201915b5050505050905085565b6000805460019081018083556040805160a08101825282815260208082018a81528284018a90526060830189905260808301889052938652848152919094208451815591518051929361075a939085019291909101906107bd565b50604082015180516107769160028401916020909101906107bd565b50606082015180516107929160038401916020909101906107bd565b50608082015180516107ae9160048401916020909101906107bd565b50505050505050565b60005481565b828054600181600116156101000203166002900490600052602060002090601f016020900481019282601f106107fe57805160ff191683800117855561082b565b8280016001018555821561082b579182015b8281111561082b578251825591602001919060010190610810565b5061083792915061083b565b5090565b61085591905b808211156108375760008155600101610841565b9056fea165627a7a723058209fb23e1780bca971f6e4e9bfd2c8f35651fcbde2438172c37b2cca791c0b24700029",
  "source": "pragma solidity ^0.5.0;\r\n\r\ncontract News{\r\n    uint public newsCount = 0;\r\n    struct NewsInfo {\r\n        uint id;\r\n        string title;\r\n        string description;\r\n        string publisher;\r\n        string dateCreated;\r\n    }\r\n\r\n    mapping(uint => NewsInfo) public newsInfos;\r\n\r\n    function createNews(string memory _title, string memory _description, string memory _publisher, string memory _timeCreated) public {\r\n        newsCount += 1;\r\n        newsInfos[newsCount] = NewsInfo(newsCount, _title, _description, _publisher, _timeCreated);\r\n    }\r\n\r\n}\r\n\r\n",
  "sourcePath": "P:/VIT VELLORE/4th Semester/CSE3002 - INTERNET AND WEB PROGRAMMING/PROJECT/Smart Contract/contracts/News.sol",
  "compiler": {
    "name": "solc",
    "version": "0.5.0+commit.1d4f565a.Emscripten.clang"
  },
  "schemaVersion": "3.0.1",
  "updatedAt": "2022-03-21T04:54:51.665Z",
  "devdoc": {
    "methods": {}
  },
  "userdoc": {
    "methods": {}
  }
}