{
  "contractName": "News",
  "abi": [
    {
      "constant": true,
      "inputs": [
        {
          "internalType": "uint256",
          "name": "",
          "type": "uint256"
        }
      ],
      "name": "getNewsByID",
      "outputs": [
        {
          "internalType": "uint256",
          "name": "id",
          "type": "uint256"
        },
        {
          "internalType": "address",
          "name": "uploader_address",
          "type": "address"
        },
        {
          "internalType": "string",
          "name": "title",
          "type": "string"
        },
        {
          "internalType": "string",
          "name": "description",
          "type": "string"
        },
        {
          "internalType": "string",
          "name": "publisher",
          "type": "string"
        },
        {
          "internalType": "string",
          "name": "date_published",
          "type": "string"
        },
        {
          "internalType": "uint256",
          "name": "block_timestamp",
          "type": "uint256"
        },
        {
          "internalType": "uint256",
          "name": "block_number",
          "type": "uint256"
        },
        {
          "internalType": "bytes",
          "name": "block_data",
          "type": "bytes"
        }
      ],
      "payable": false,
      "stateMutability": "view",
      "type": "function"
    },
    {
      "constant": true,
      "inputs": [],
      "name": "newsCount",
      "outputs": [
        {
          "internalType": "uint256",
          "name": "",
          "type": "uint256"
        }
      ],
      "payable": false,
      "stateMutability": "view",
      "type": "function"
    },
    {
      "constant": false,
      "inputs": [
        {
          "internalType": "string",
          "name": "_title",
          "type": "string"
        },
        {
          "internalType": "string",
          "name": "_description",
          "type": "string"
        },
        {
          "internalType": "string",
          "name": "_publisher",
          "type": "string"
        },
        {
          "internalType": "string",
          "name": "date_published",
          "type": "string"
        }
      ],
      "name": "createNews",
      "outputs": [],
      "payable": false,
      "stateMutability": "nonpayable",
      "type": "function"
    },
    {
      "constant": true,
      "inputs": [],
      "name": "getNewsCount",
      "outputs": [
        {
          "internalType": "uint256",
          "name": "",
          "type": "uint256"
        }
      ],
      "payable": false,
      "stateMutability": "view",
      "type": "function"
    },
    {
      "constant": true,
      "inputs": [],
      "name": "getAllNews",
      "outputs": [
        {
          "components": [
            {
              "internalType": "uint256",
              "name": "id",
              "type": "uint256"
            },
            {
              "internalType": "address",
              "name": "uploader_address",
              "type": "address"
            },
            {
              "internalType": "string",
              "name": "title",
              "type": "string"
            },
            {
              "internalType": "string",
              "name": "description",
              "type": "string"
            },
            {
              "internalType": "string",
              "name": "publisher",
              "type": "string"
            },
            {
              "internalType": "string",
              "name": "date_published",
              "type": "string"
            },
            {
              "internalType": "uint256",
              "name": "block_timestamp",
              "type": "uint256"
            },
            {
              "internalType": "uint256",
              "name": "block_number",
              "type": "uint256"
            },
            {
              "internalType": "bytes",
              "name": "block_data",
              "type": "bytes"
            }
          ],
          "internalType": "struct News.NewsInfo[]",
          "name": "",
          "type": "tuple[]"
        }
      ],
      "payable": false,
      "stateMutability": "view",
      "type": "function"
    }
  ],
  "bytecode": "0x60806040526000805534801561001457600080fd5b5061132c806100246000396000f3fe608060405234801561001057600080fd5b50600436106100575760003560e01c8063184c6aa31461005c5780637b1b5eb21461007a5780639981d6d31461008f578063f584ecd114610097578063f7005dc0146100ac575b600080fd5b6100646100d4565b6040516100719190611163565b60405180910390f35b61008d610088366004610ec2565b6100db565b005b6100646106da565b61009f6106e0565b6040516100719190611152565b6100bf6100ba366004610f82565b610a60565b60405161007199989796959493929190611171565b6000545b90565b600160008082825401925050819055506040518061012001604052806000548152602001336001600160a01b031681526020018581526020018481526020018381526020018281526020014281526020014381526020016000368080601f0160208091040260200160405190810160405280939291908181526020018383808284376000920182905250939094525050805481526002602081815260409283902085518155858201516001820180546001600160a01b0319166001600160a01b039092169190911790559285015180519394506101be9392850192910190610d70565b50606082015180516101da916003840191602090910190610d70565b50608082015180516101f6916004840191602090910190610d70565b5060a08201518051610212916005840191602090910190610d70565b5060c0820151600682015560e082015160078201556101008201518051610243916008840191602090910190610d70565b5090505061024f610dee565b60008054815260026020818152604092839020835161012081018552815481526001808301546001600160a01b03168285015282850180548751601f600019948316156101000294909401909116969096049182018590048502860185018752818652919592949286019383018282801561030b5780601f106102e05761010080835404028352916020019161030b565b820191906000526020600020905b8154815290600101906020018083116102ee57829003601f168201915b505050918352505060038201805460408051602060026001851615610100026000190190941693909304601f810184900484028201840190925281815293820193929183018282801561039f5780601f106103745761010080835404028352916020019161039f565b820191906000526020600020905b81548152906001019060200180831161038257829003601f168201915b505050918352505060048201805460408051602060026001851615610100026000190190941693909304601f81018490048402820184019092528181529382019392918301828280156104335780601f1061040857610100808354040283529160200191610433565b820191906000526020600020905b81548152906001019060200180831161041657829003601f168201915b505050918352505060058201805460408051602060026001851615610100026000190190941693909304601f81018490048402820184019092528181529382019392918301828280156104c75780601f1061049c576101008083540402835291602001916104c7565b820191906000526020600020905b8154815290600101906020018083116104aa57829003601f168201915b505050505081526020016006820154815260200160078201548152602001600882018054600181600116156101000203166002900480601f01602080910402602001604051908101604052809291908181526020018280546001816001161561010002031660029004801561057d5780601f106105525761010080835404028352916020019161057d565b820191906000526020600020905b81548152906001019060200180831161056057829003601f168201915b5050509190925250506001805480820180835560009290925283517fb10e2d527612073b26eecdfd717e6a320cf44b4afac2b0732d9fcbe2b7fa0cf660099092029182019081556020808601517fb10e2d527612073b26eecdfd717e6a320cf44b4afac2b0732d9fcbe2b7fa0cf7840180546001600160a01b0319166001600160a01b03909216919091179055604086015180519697509395879550919361064a937fb10e2d527612073b26eecdfd717e6a320cf44b4afac2b0732d9fcbe2b7fa0cf80192910190610d70565b5060608201518051610666916003840191602090910190610d70565b5060808201518051610682916004840191602090910190610d70565b5060a0820151805161069e916005840191602090910190610d70565b5060c0820151600682015560e0820151600782015561010082015180516106cf916008840191602090910190610d70565b505050505050505050565b60005481565b60606001805480602002602001604051908101604052809291908181526020016000905b82821015610a57576000848152602090819020604080516101208101825260098602909201805483526001808201546001600160a01b0316848601526002808301805485516101009482161594909402600019011691909104601f81018790048702830187018552808352949592949386019391929091908301828280156107cd5780601f106107a2576101008083540402835291602001916107cd565b820191906000526020600020905b8154815290600101906020018083116107b057829003601f168201915b505050918352505060038201805460408051602060026001851615610100026000190190941693909304601f81018490048402820184019092528181529382019392918301828280156108615780601f1061083657610100808354040283529160200191610861565b820191906000526020600020905b81548152906001019060200180831161084457829003601f168201915b505050918352505060048201805460408051602060026001851615610100026000190190941693909304601f81018490048402820184019092528181529382019392918301828280156108f55780601f106108ca576101008083540402835291602001916108f5565b820191906000526020600020905b8154815290600101906020018083116108d857829003601f168201915b505050918352505060058201805460408051602060026001851615610100026000190190941693909304601f81018490048402820184019092528181529382019392918301828280156109895780601f1061095e57610100808354040283529160200191610989565b820191906000526020600020905b81548152906001019060200180831161096c57829003601f168201915b505050505081526020016006820154815260200160078201548152602001600882018054600181600116156101000203166002900480601f016020809104026020016040519081016040528092919081815260200182805460018160011615610100020316600290048015610a3f5780601f10610a1457610100808354040283529160200191610a3f565b820191906000526020600020905b815481529060010190602001808311610a2257829003601f168201915b50505050508152505081526020019060010190610704565b50505050905090565b600260208181526000928352604092839020805460018083015483860180548851601f6000199583161561010002959095019091169790970492830186900486028701860190975281865291956001600160a01b03909216949293830182828015610b0c5780601f10610ae157610100808354040283529160200191610b0c565b820191906000526020600020905b815481529060010190602001808311610aef57829003601f168201915b5050505060038301805460408051602060026001851615610100026000190190941693909304601f8101849004840282018401909252818152949594935090830182828015610b9c5780601f10610b7157610100808354040283529160200191610b9c565b820191906000526020600020905b815481529060010190602001808311610b7f57829003601f168201915b5050505060048301805460408051602060026001851615610100026000190190941693909304601f8101849004840282018401909252818152949594935090830182828015610c2c5780601f10610c0157610100808354040283529160200191610c2c565b820191906000526020600020905b815481529060010190602001808311610c0f57829003601f168201915b5050505060058301805460408051602060026001851615610100026000190190941693909304601f8101849004840282018401909252818152949594935090830182828015610cbc5780601f10610c9157610100808354040283529160200191610cbc565b820191906000526020600020905b815481529060010190602001808311610c9f57829003601f168201915b505050505090806006015490806007015490806008018054600181600116156101000203166002900480601f016020809104026020016040519081016040528092919081815260200182805460018160011615610100020316600290048015610d665780601f10610d3b57610100808354040283529160200191610d66565b820191906000526020600020905b815481529060010190602001808311610d4957829003601f168201915b5050505050905089565b828054600181600116156101000203166002900490600052602060002090601f016020900481019282601f10610db157805160ff1916838001178555610dde565b82800160010185558215610dde579182015b82811115610dde578251825591602001919060010190610dc3565b50610dea929150610e43565b5090565b6040518061012001604052806000815260200160006001600160a01b03168152602001606081526020016060815260200160608152602001606081526020016000815260200160008152602001606081525090565b6100d891905b80821115610dea5760008155600101610e49565b600082601f830112610e6e57600080fd5b8135610e81610e7c82611240565b611219565b91508082526020830160208301858383011115610e9d57600080fd5b610ea883828461128c565b50505092915050565b8035610ebc816112d2565b92915050565b60008060008060808587031215610ed857600080fd5b843567ffffffffffffffff811115610eef57600080fd5b610efb87828801610e5d565b945050602085013567ffffffffffffffff811115610f1857600080fd5b610f2487828801610e5d565b935050604085013567ffffffffffffffff811115610f4157600080fd5b610f4d87828801610e5d565b925050606085013567ffffffffffffffff811115610f6a57600080fd5b610f7687828801610e5d565b91505092959194509250565b600060208284031215610f9457600080fd5b6000610fa08484610eb1565b949350505050565b6000610fb48383611070565b9392505050565b610fc48161127b565b82525050565b6000610fd58261126e565b610fdf8185611272565b935083602082028501610ff185611268565b8060005b8581101561102b578484038952815161100e8582610fa8565b945061101983611268565b60209a909a0199925050600101610ff5565b5091979650505050505050565b60006110438261126e565b61104d8185611272565b935061105d818560208601611298565b611066816112c8565b9093019392505050565b80516000906101208401906110858582611149565b5060208301516110986020860182610fbb565b50604083015184820360408601526110b08282611038565b915050606083015184820360608601526110ca8282611038565b915050608083015184820360808601526110e48282611038565b91505060a083015184820360a08601526110fe8282611038565b91505060c083015161111360c0860182611149565b5060e083015161112660e0860182611149565b506101008301518482036101008601526111408282611038565b95945050505050565b610fc4816100d8565b60208082528101610fb48184610fca565b60208101610ebc8284611149565b6101208101611180828c611149565b61118d602083018b610fbb565b818103604083015261119f818a611038565b905081810360608301526111b38189611038565b905081810360808301526111c78188611038565b905081810360a08301526111db8187611038565b90506111ea60c0830186611149565b6111f760e0830185611149565b81810361010083015261120a8184611038565b9b9a5050505050505050505050565b60405181810167ffffffffffffffff8111828210171561123857600080fd5b604052919050565b600067ffffffffffffffff82111561125757600080fd5b506020601f91909101601f19160190565b60200190565b5190565b90815260200190565b60006001600160a01b038216610ebc565b82818337506000910152565b60005b838110156112b357818101518382015260200161129b565b838111156112c2576000848401525b50505050565b601f01601f191690565b6112db816100d8565b81146112e657600080fd5b5056fea365627a7a72315820880cf94a2ea067987eb9ae0983438867239e695d7c90a4e9495e3a02d11b2a726c6578706572696d656e74616cf564736f6c63430005100040",
  "source": "// SPDX-License-Identifier: MIT\r\npragma solidity >=0.4.22 <0.9.0;\r\npragma experimental ABIEncoderV2;\r\n\r\ncontract News {\r\n    \r\n    uint256 public newsCount = 0;\r\n\r\n    struct NewsInfo {\r\n        uint256 id;\r\n        address uploader_address;\r\n        string title;\r\n        string description;\r\n        string publisher;\r\n        string date_published;\r\n        uint256 block_timestamp;\r\n        uint256 block_number;\r\n        bytes block_data;\r\n    }\r\n    NewsInfo[] newsInfos;\r\n\r\n    mapping(uint256 => NewsInfo) public getNewsByID;\r\n\r\n    function createNews(\r\n        string memory _title,\r\n        string memory _description,\r\n        string memory _publisher,\r\n        string memory date_published\r\n    ) public {\r\n        newsCount += 1;\r\n        getNewsByID[newsCount] = NewsInfo(\r\n            newsCount,\r\n            msg.sender,\r\n            _title,\r\n            _description,\r\n            _publisher,\r\n            date_published,\r\n            block.timestamp,\r\n            block.number,\r\n            msg.data\r\n        );\r\n        NewsInfo memory newsInfo = getNewsByID[newsCount];\r\n        newsInfos.push(newsInfo);\r\n    }\r\n\r\n    function getNewsCount() public view returns (uint256) {\r\n        return newsCount;\r\n    }\r\n\r\n    function getAllNews() public view returns (NewsInfo[] memory) {\r\n        return newsInfos;\r\n    }\r\n}\r\n",
  "sourcePath": "/media/prasoonsoni/Data/VIT VELLORE/4th Semester/CSE3002 - INTERNET AND WEB PROGRAMMING/PROJECT/News Smart Contract/contracts/News.sol",
  "compiler": {
    "name": "solc",
    "version": "0.5.16+commit.9c3226ce.Emscripten.clang"
  },
  "schemaVersion": "3.4.6",
  "updatedAt": "2022-03-24T02:20:25.802Z",
  "networkType": "ethereum",
  "devdoc": {
    "methods": {}
  },
  "userdoc": {
    "methods": {}
  }
}