{
  "contractName": "News",
  "abi": [
    {
      "constant": true,
      "inputs": [],
      "name": "newsCount",
      "outputs": [
        {
          "name": "",
          "type": "uint256"
        }
      ],
      "payable": false,
      "stateMutability": "view",
      "type": "function",
      "signature": "0x9981d6d3"
    }
  ],
  "bytecode": "0x608060405260008055348015601357600080fd5b50609e806100226000396000f3fe608060405260043610603f576000357c0100000000000000000000000000000000000000000000000000000000900463ffffffff1680639981d6d3146044575b600080fd5b348015604f57600080fd5b506056606c565b6040518082815260200191505060405180910390f35b6000548156fea165627a7a72305820cc79d6cd51b72a6c05b5b9aa734d25cde54dcfdb05cb6cc60c25a220490fac700029",
  "source": "pragma solidity ^0.5.0;\r\n\r\ncontract News{\r\n    uint public newsCount = 0;\r\n}\r\n\r\n",
  "sourcePath": "P:/VIT VELLORE/4th Semester/CSE3002 - INTERNET AND WEB PROGRAMMING/PROJECT/Smart Contract/contracts/News.sol",
  "compiler": {
    "name": "solc",
    "version": "0.5.0+commit.1d4f565a.Emscripten.clang"
  },
  "schemaVersion": "3.0.1",
  "updatedAt": "2022-03-20T17:46:42.521Z",
  "devdoc": {
    "methods": {}
  },
  "userdoc": {
    "methods": {}
  }
}