{
  "contractName": "News",
  "abi": [
    {
      "constant": true,
      "inputs": [],
      "name": "newsCount",
      "outputs": [
        {
          "name": "",
          "type": "uint256"
        }
      ],
      "payable": false,
      "stateMutability": "view",
      "type": "function",
      "signature": "0x9981d6d3"
    },
    {
      "constant": true,
      "inputs": [
        {
          "name": "",
          "type": "uint256"
        }
      ],
      "name": "getNewsByID",
      "outputs": [
        {
          "name": "id",
          "type": "uint256"
        },
        {
          "name": "uploader_address",
          "type": "address"
        },
        {
          "name": "title",
          "type": "string"
        },
        {
          "name": "description",
          "type": "string"
        },
        {
          "name": "publisher",
          "type": "string"
        },
        {
          "name": "date_published",
          "type": "string"
        },
        {
          "name": "block_timestamp",
          "type": "uint256"
        },
        {
          "name": "block_number",
          "type": "uint256"
        },
        {
          "name": "block_hash",
          "type": "bytes32"
        },
        {
          "name": "block_data",
          "type": "bytes"
        }
      ],
      "payable": false,
      "stateMutability": "view",
      "type": "function",
      "signature": "0xf7005dc0"
    },
    {
      "constant": false,
      "inputs": [
        {
          "name": "_title",
          "type": "string"
        },
        {
          "name": "_description",
          "type": "string"
        },
        {
          "name": "_publisher",
          "type": "string"
        },
        {
          "name": "date_published",
          "type": "string"
        }
      ],
      "name": "createNews",
      "outputs": [],
      "payable": false,
      "stateMutability": "nonpayable",
      "type": "function",
      "signature": "0x7b1b5eb2"
    },
    {
      "constant": true,
      "inputs": [],
      "name": "getNewsCount",
      "outputs": [
        {
          "name": "",
          "type": "uint256"
        }
      ],
      "payable": false,
      "stateMutability": "view",
      "type": "function",
      "signature": "0x184c6aa3"
    },
    {
      "constant": true,
      "inputs": [],
      "name": "getAllNews",
      "outputs": [
        {
          "components": [
            {
              "name": "id",
              "type": "uint256"
            },
            {
              "name": "uploader_address",
              "type": "address"
            },
            {
              "name": "title",
              "type": "string"
            },
            {
              "name": "description",
              "type": "string"
            },
            {
              "name": "publisher",
              "type": "string"
            },
            {
              "name": "date_published",
              "type": "string"
            },
            {
              "name": "block_timestamp",
              "type": "uint256"
            },
            {
              "name": "block_number",
              "type": "uint256"
            },
            {
              "name": "block_hash",
              "type": "bytes32"
            },
            {
              "name": "block_data",
              "type": "bytes"
            }
          ],
          "name": "",
          "type": "tuple[]"
        }
      ],
      "payable": false,
      "stateMutability": "view",
      "type": "function",
      "signature": "0xf584ecd1"
    }
  ],
  "bytecode": "0x60806040526000805534801561001457600080fd5b506113d1806100246000396000f3fe60806040526004361061006c5763ffffffff7c0100000000000000000000000000000000000000000000000000000000600035041663184c6aa381146100715780637b1b5eb21461009c5780639981d6d3146100be578063f584ecd1146100d3578063f7005dc0146100f5575b600080fd5b34801561007d57600080fd5b5061008661012b565b604051610093919061121c565b60405180910390f35b3480156100a857600080fd5b506100bc6100b7366004610f83565b610132565b005b3480156100ca57600080fd5b50610086610789565b3480156100df57600080fd5b506100e861078f565b604051610093919061120b565b34801561010157600080fd5b50610115610110366004611043565b610b19565b6040516100939a99989796959493929190611230565b6000545b90565b6001600080828254019250508190555061014060405190810160405280600054815260200133600160a060020a03168152602001858152602001848152602001838152602001828152602001428152602001438152602001434081526020016000368080601f01602080910402602001604051908101604052809392919081815260200183838082843760009201829052509390945250508054815260026020818152604092839020855181558582015160018201805473ffffffffffffffffffffffffffffffffffffffff1916600160a060020a0390921691909117905592850151805193945061022a9392850192910190610e24565b5060608201518051610246916003840191602090910190610e24565b5060808201518051610262916004840191602090910190610e24565b5060a0820151805161027e916005840191602090910190610e24565b5060c0820151600682015560e08201516007820155610100820151600882015561012082015180516102ba916009840191602090910190610e24565b50506000805481526002602052604090204340600890910155506102dc610ea2565b6000805481526002602081815260409283902083516101408101855281548152600180830154600160a060020a03168285015282850180548751601f60001994831615610100029490940190911696909604918201859004850286018501875281865291959294928601938301828280156103985780601f1061036d57610100808354040283529160200191610398565b820191906000526020600020905b81548152906001019060200180831161037b57829003601f168201915b505050918352505060038201805460408051602060026001851615610100026000190190941693909304601f810184900484028201840190925281815293820193929183018282801561042c5780601f106104015761010080835404028352916020019161042c565b820191906000526020600020905b81548152906001019060200180831161040f57829003601f168201915b505050918352505060048201805460408051602060026001851615610100026000190190941693909304601f81018490048402820184019092528181529382019392918301828280156104c05780601f10610495576101008083540402835291602001916104c0565b820191906000526020600020905b8154815290600101906020018083116104a357829003601f168201915b505050918352505060058201805460408051602060026001851615610100026000190190941693909304601f81018490048402820184019092528181529382019392918301828280156105545780601f1061052957610100808354040283529160200191610554565b820191906000526020600020905b81548152906001019060200180831161053757829003601f168201915b50505050508152602001600682015481526020016007820154815260200160088201548152602001600982018054600181600116156101000203166002900480601f0160208091040260200160405190810160405280929190818152602001828054600181600116156101000203166002900480156106145780601f106105e957610100808354040283529160200191610614565b820191906000526020600020905b8154815290600101906020018083116105f757829003601f168201915b5050509190925250506001805480820180835560009290925283517fb10e2d527612073b26eecdfd717e6a320cf44b4afac2b0732d9fcbe2b7fa0cf6600a9092029182019081556020808601517fb10e2d527612073b26eecdfd717e6a320cf44b4afac2b0732d9fcbe2b7fa0cf78401805473ffffffffffffffffffffffffffffffffffffffff1916600160a060020a0390921691909117905560408601518051969750939587955091936106ee937fb10e2d527612073b26eecdfd717e6a320cf44b4afac2b0732d9fcbe2b7fa0cf80192910190610e24565b506060820151805161070a916003840191602090910190610e24565b5060808201518051610726916004840191602090910190610e24565b5060a08201518051610742916005840191602090910190610e24565b5060c0820151600682015560e082015160078201556101008201516008820155610120820151805161077e916009840191602090910190610e24565b505050505050505050565b60005481565b60606001805480602002602001604051908101604052809291908181526020016000905b82821015610b105760008481526020908190206040805161014081018252600a860290920180548352600180820154600160a060020a0316848601526002808301805485516101009482161594909402600019011691909104601f810187900487028301870185528083529495929493860193919290919083018282801561087c5780601f106108515761010080835404028352916020019161087c565b820191906000526020600020905b81548152906001019060200180831161085f57829003601f168201915b505050918352505060038201805460408051602060026001851615610100026000190190941693909304601f81018490048402820184019092528181529382019392918301828280156109105780601f106108e557610100808354040283529160200191610910565b820191906000526020600020905b8154815290600101906020018083116108f357829003601f168201915b505050918352505060048201805460408051602060026001851615610100026000190190941693909304601f81018490048402820184019092528181529382019392918301828280156109a45780601f10610979576101008083540402835291602001916109a4565b820191906000526020600020905b81548152906001019060200180831161098757829003601f168201915b505050918352505060058201805460408051602060026001851615610100026000190190941693909304601f8101849004840282018401909252818152938201939291830182828015610a385780601f10610a0d57610100808354040283529160200191610a38565b820191906000526020600020905b815481529060010190602001808311610a1b57829003601f168201915b50505050508152602001600682015481526020016007820154815260200160088201548152602001600982018054600181600116156101000203166002900480601f016020809104026020016040519081016040528092919081815260200182805460018160011615610100020316600290048015610af85780601f10610acd57610100808354040283529160200191610af8565b820191906000526020600020905b815481529060010190602001808311610adb57829003601f168201915b505050505081525050815260200190600101906107b3565b50505050905090565b600260208181526000928352604092839020805460018083015483860180548851601f600019958316156101000295909501909116979097049283018690048602870186019097528186529195600160a060020a03909216949293830182828015610bc55780601f10610b9a57610100808354040283529160200191610bc5565b820191906000526020600020905b815481529060010190602001808311610ba857829003601f168201915b5050505060038301805460408051602060026001851615610100026000190190941693909304601f8101849004840282018401909252818152949594935090830182828015610c555780601f10610c2a57610100808354040283529160200191610c55565b820191906000526020600020905b815481529060010190602001808311610c3857829003601f168201915b5050505060048301805460408051602060026001851615610100026000190190941693909304601f8101849004840282018401909252818152949594935090830182828015610ce55780601f10610cba57610100808354040283529160200191610ce5565b820191906000526020600020905b815481529060010190602001808311610cc857829003601f168201915b5050505060058301805460408051602060026001851615610100026000190190941693909304601f8101849004840282018401909252818152949594935090830182828015610d755780601f10610d4a57610100808354040283529160200191610d75565b820191906000526020600020905b815481529060010190602001808311610d5857829003601f168201915b505050600684015460078501546008860154600987018054604080516020601f60026000196101006001881615020190951694909404938401819004810282018101909252828152989995989497509295509091830182828015610e1a5780601f10610def57610100808354040283529160200191610e1a565b820191906000526020600020905b815481529060010190602001808311610dfd57829003601f168201915b505050505090508a565b828054600181600116156101000203166002900490600052602060002090601f016020900481019282601f10610e6557805160ff1916838001178555610e92565b82800160010185558215610e92579182015b82811115610e92578251825591602001919060010190610e77565b50610e9e929150610f02565b5090565b61014060405190810160405280600081526020016000600160a060020a0316815260200160608152602001606081526020016060815260200160608152602001600081526020016000815260200160008019168152602001606081525090565b61012f91905b80821115610e9e5760008155600101610f08565b6000601f82018313610f2d57600080fd5b8135610f40610f3b8261130e565b6112e7565b91508082526020830160208301858383011115610f5c57600080fd5b610f67838284611351565b50505092915050565b6000610f7c823561012f565b9392505050565b60008060008060808587031215610f9957600080fd5b843567ffffffffffffffff811115610fb057600080fd5b610fbc87828801610f1c565b945050602085013567ffffffffffffffff811115610fd957600080fd5b610fe587828801610f1c565b935050604085013567ffffffffffffffff81111561100257600080fd5b61100e87828801610f1c565b925050606085013567ffffffffffffffff81111561102b57600080fd5b61103787828801610f1c565b91505092959194509250565b60006020828403121561105557600080fd5b60006110618484610f70565b949350505050565b61107281611340565b82525050565b60006110838261133c565b8084526020840193508360208202850161109c85611336565b60005b848110156110d35783830388526110b783835161111d565b92506110c282611336565b60209890980197915060010161109f565b50909695505050505050565b6110728161012f565b60006110f38261133c565b80845261110781602086016020860161135d565b6111108161138d565b9093016020019392505050565b805160009061014084019061113285826110df565b5060208301516111456020860182611069565b506040830151848203604086015261115d82826110e8565b9150506060830151848203606086015261117782826110e8565b9150506080830151848203608086015261119182826110e8565b91505060a083015184820360a08601526111ab82826110e8565b91505060c08301516111c060c08601826110df565b5060e08301516111d360e08601826110df565b506101008301516111e86101008601826110df565b5061012083015184820361012086015261120282826110e8565b95945050505050565b60208082528101610f7c8184611078565b6020810161122a82846110df565b92915050565b610140810161123f828d6110df565b61124c602083018c611069565b818103604083015261125e818b6110e8565b90508181036060830152611272818a6110e8565b9050818103608083015261128681896110e8565b905081810360a083015261129a81886110e8565b90506112a960c08301876110df565b6112b660e08301866110df565b6112c46101008301856110df565b8181036101208301526112d781846110e8565b9c9b505050505050505050505050565b60405181810167ffffffffffffffff8111828210171561130657600080fd5b604052919050565b600067ffffffffffffffff82111561132557600080fd5b506020601f91909101601f19160190565b60200190565b5190565b6000600160a060020a03821661122a565b82818337506000910152565b60005b83811015611378578181015183820152602001611360565b83811115611387576000848401525b50505050565b601f01601f19169056fea265627a7a7230582049f9351fe8535450d144afd5129742042dae1f4a74832415fdba6b82fc881faf6c6578706572696d656e74616cf50037",
  "source": "pragma solidity ^0.5.0;\r\npragma experimental ABIEncoderV2;\r\n\r\ncontract News {\r\n    uint256 public newsCount = 0;\r\n    struct NewsInfo {\r\n        uint256 id;\r\n        address uploader_address;\r\n        string title;\r\n        string description;\r\n        string publisher;\r\n        string date_published;\r\n        uint block_timestamp;\r\n        uint block_number;\r\n        bytes32 block_hash;\r\n        bytes block_data;\r\n    }\r\n    NewsInfo[] newsInfos;\r\n    mapping(uint256 => NewsInfo) public getNewsByID;\r\n\r\n    function createNews(\r\n        string memory _title,\r\n        string memory _description,\r\n        string memory _publisher,\r\n        string memory date_published\r\n    ) public {\r\n        newsCount += 1;\r\n        getNewsByID[newsCount] = NewsInfo(\r\n            newsCount,\r\n            msg.sender,\r\n            _title,\r\n            _description,\r\n            _publisher,\r\n            date_published,\r\n            block.timestamp,\r\n            block.number,\r\n            blockhash(block.number),\r\n            msg.data\r\n        );\r\n        getNewsByID[newsCount].block_hash = blockhash(block.number);\r\n        NewsInfo memory newsInfo = getNewsByID[newsCount];\r\n        newsInfos.push(newsInfo);\r\n    }\r\n\r\n    function getNewsCount() public view returns (uint256) {\r\n        return newsCount;\r\n    }\r\n\r\n    function getAllNews() public view returns (NewsInfo[] memory) {\r\n        return newsInfos;\r\n    }\r\n}\r\n",
  "sourcePath": "P:/VIT VELLORE/4th Semester/CSE3002 - INTERNET AND WEB PROGRAMMING/PROJECT/News Smart Contract/contracts/News.sol",
  "compiler": {
    "name": "solc",
    "version": "0.5.0+commit.1d4f565a.Emscripten.clang"
  },
  "schemaVersion": "3.0.1",
  "updatedAt": "2022-03-22T12:48:16.407Z",
  "devdoc": {
    "methods": {}
  },
  "userdoc": {
    "methods": {}
  }
}